{
  "address": "0xCc422502E12e4D1EcB9c093217Ccd1F5afF9e160",
  "abi": [
    {
      "inputs": [
        {
          "internalType": "address",
          "name": "_sponsor",
          "type": "address"
        },
        {
          "internalType": "address",
          "name": "_vrfCoordinator",
          "type": "address"
        },
        {
          "internalType": "address",
          "name": "_linkToken",
          "type": "address"
        },
        {
          "internalType": "address",
          "name": "_treasuryToken",
          "type": "address"
        },
        {
          "internalType": "bytes32",
          "name": "_keyHash",
          "type": "bytes32"
        },
        {
          "internalType": "uint256",
          "name": "_chainlinkFee",
          "type": "uint256"
        },
        {
          "internalType": "uint256",
          "name": "_entranceFee",
          "type": "uint256"
        },
        {
          "internalType": "uint256",
          "name": "_interval",
          "type": "uint256"
        }
      ],
      "stateMutability": "nonpayable",
      "type": "constructor"
    },
    {
      "inputs": [],
      "name": "OnlySimulatedBackend",
      "type": "error"
    },
    {
      "anonymous": false,
      "inputs": [
        {
          "indexed": true,
          "internalType": "address",
          "name": "participant",
          "type": "address"
        },
        {
          "indexed": false,
          "internalType": "uint256",
          "name": "amount",
          "type": "uint256"
        }
      ],
      "name": "DepositUpdate",
      "type": "event"
    },
    {
      "anonymous": false,
      "inputs": [
        {
          "indexed": true,
          "internalType": "bytes32",
          "name": "role",
          "type": "bytes32"
        },
        {
          "indexed": true,
          "internalType": "bytes32",
          "name": "previousAdminRole",
          "type": "bytes32"
        },
        {
          "indexed": true,
          "internalType": "bytes32",
          "name": "newAdminRole",
          "type": "bytes32"
        }
      ],
      "name": "RoleAdminChanged",
      "type": "event"
    },
    {
      "anonymous": false,
      "inputs": [
        {
          "indexed": true,
          "internalType": "bytes32",
          "name": "role",
          "type": "bytes32"
        },
        {
          "indexed": true,
          "internalType": "address",
          "name": "account",
          "type": "address"
        },
        {
          "indexed": true,
          "internalType": "address",
          "name": "sender",
          "type": "address"
        }
      ],
      "name": "RoleGranted",
      "type": "event"
    },
    {
      "anonymous": false,
      "inputs": [
        {
          "indexed": true,
          "internalType": "bytes32",
          "name": "role",
          "type": "bytes32"
        },
        {
          "indexed": true,
          "internalType": "address",
          "name": "account",
          "type": "address"
        },
        {
          "indexed": true,
          "internalType": "address",
          "name": "sender",
          "type": "address"
        }
      ],
      "name": "RoleRevoked",
      "type": "event"
    },
    {
      "inputs": [],
      "name": "DEFAULT_ADMIN_ROLE",
      "outputs": [
        {
          "internalType": "bytes32",
          "name": "",
          "type": "bytes32"
        }
      ],
      "stateMutability": "view",
      "type": "function"
    },
    {
      "inputs": [],
      "name": "SPONSOR_ROLE",
      "outputs": [
        {
          "internalType": "bytes32",
          "name": "",
          "type": "bytes32"
        }
      ],
      "stateMutability": "view",
      "type": "function"
    },
    {
      "inputs": [
        {
          "internalType": "bytes",
          "name": "",
          "type": "bytes"
        }
      ],
      "name": "checkUpkeep",
      "outputs": [
        {
          "internalType": "bool",
          "name": "upkeepNeeded",
          "type": "bool"
        },
        {
          "internalType": "bytes",
          "name": "",
          "type": "bytes"
        }
      ],
      "stateMutability": "view",
      "type": "function"
    },
    {
      "inputs": [
        {
          "internalType": "address",
          "name": "_funder",
          "type": "address"
        },
        {
          "internalType": "uint256",
          "name": "_amount",
          "type": "uint256"
        }
      ],
      "name": "enterRaffle",
      "outputs": [],
      "stateMutability": "nonpayable",
      "type": "function"
    },
    {
      "inputs": [
        {
          "internalType": "bytes32",
          "name": "role",
          "type": "bytes32"
        }
      ],
      "name": "getRoleAdmin",
      "outputs": [
        {
          "internalType": "bytes32",
          "name": "",
          "type": "bytes32"
        }
      ],
      "stateMutability": "view",
      "type": "function"
    },
    {
      "inputs": [
        {
          "internalType": "bytes32",
          "name": "role",
          "type": "bytes32"
        },
        {
          "internalType": "address",
          "name": "account",
          "type": "address"
        }
      ],
      "name": "grantRole",
      "outputs": [],
      "stateMutability": "nonpayable",
      "type": "function"
    },
    {
      "inputs": [
        {
          "internalType": "bytes32",
          "name": "role",
          "type": "bytes32"
        },
        {
          "internalType": "address",
          "name": "account",
          "type": "address"
        }
      ],
      "name": "hasRole",
      "outputs": [
        {
          "internalType": "bool",
          "name": "",
          "type": "bool"
        }
      ],
      "stateMutability": "view",
      "type": "function"
    },
    {
      "inputs": [
        {
          "internalType": "bytes",
          "name": "",
          "type": "bytes"
        }
      ],
      "name": "performUpkeep",
      "outputs": [],
      "stateMutability": "nonpayable",
      "type": "function"
    },
    {
      "inputs": [
        {
          "internalType": "bytes32",
          "name": "requestId",
          "type": "bytes32"
        },
        {
          "internalType": "uint256",
          "name": "randomness",
          "type": "uint256"
        }
      ],
      "name": "rawFulfillRandomness",
      "outputs": [],
      "stateMutability": "nonpayable",
      "type": "function"
    },
    {
      "inputs": [
        {
          "internalType": "bytes32",
          "name": "role",
          "type": "bytes32"
        },
        {
          "internalType": "address",
          "name": "account",
          "type": "address"
        }
      ],
      "name": "renounceRole",
      "outputs": [],
      "stateMutability": "nonpayable",
      "type": "function"
    },
    {
      "inputs": [
        {
          "internalType": "bytes32",
          "name": "role",
          "type": "bytes32"
        },
        {
          "internalType": "address",
          "name": "account",
          "type": "address"
        }
      ],
      "name": "revokeRole",
      "outputs": [],
      "stateMutability": "nonpayable",
      "type": "function"
    },
    {
      "inputs": [],
      "name": "s_chainlinkFee",
      "outputs": [
        {
          "internalType": "uint256",
          "name": "",
          "type": "uint256"
        }
      ],
      "stateMutability": "view",
      "type": "function"
    },
    {
      "inputs": [
        {
          "internalType": "address",
          "name": "",
          "type": "address"
        }
      ],
      "name": "s_deposits",
      "outputs": [
        {
          "internalType": "uint256",
          "name": "",
          "type": "uint256"
        }
      ],
      "stateMutability": "view",
      "type": "function"
    },
    {
      "inputs": [],
      "name": "s_entranceFee",
      "outputs": [
        {
          "internalType": "uint256",
          "name": "",
          "type": "uint256"
        }
      ],
      "stateMutability": "view",
      "type": "function"
    },
    {
      "inputs": [],
      "name": "s_interval",
      "outputs": [
        {
          "internalType": "uint256",
          "name": "",
          "type": "uint256"
        }
      ],
      "stateMutability": "view",
      "type": "function"
    },
    {
      "inputs": [],
      "name": "s_keyHash",
      "outputs": [
        {
          "internalType": "bytes32",
          "name": "",
          "type": "bytes32"
        }
      ],
      "stateMutability": "view",
      "type": "function"
    },
    {
      "inputs": [],
      "name": "s_lastTimeStamp",
      "outputs": [
        {
          "internalType": "uint256",
          "name": "",
          "type": "uint256"
        }
      ],
      "stateMutability": "view",
      "type": "function"
    },
    {
      "inputs": [],
      "name": "s_raffleState",
      "outputs": [
        {
          "internalType": "enum Raffle.raffleState",
          "name": "",
          "type": "uint8"
        }
      ],
      "stateMutability": "view",
      "type": "function"
    },
    {
      "inputs": [],
      "name": "s_sponsor",
      "outputs": [
        {
          "internalType": "address",
          "name": "",
          "type": "address"
        }
      ],
      "stateMutability": "view",
      "type": "function"
    },
    {
      "inputs": [],
      "name": "s_treasuryToken",
      "outputs": [
        {
          "internalType": "contract IERC20",
          "name": "",
          "type": "address"
        }
      ],
      "stateMutability": "view",
      "type": "function"
    },
    {
      "inputs": [],
      "name": "startRaffle",
      "outputs": [],
      "stateMutability": "nonpayable",
      "type": "function"
    },
    {
      "inputs": [
        {
          "internalType": "bytes4",
          "name": "interfaceId",
          "type": "bytes4"
        }
      ],
      "name": "supportsInterface",
      "outputs": [
        {
          "internalType": "bool",
          "name": "",
          "type": "bool"
        }
      ],
      "stateMutability": "view",
      "type": "function"
    }
  ],
  "transactionHash": "0xcdbf1a883bd2f2d19556fd334be3cb31191fdf78e80fac1b24e9f02d4f3901c9",
  "args": [
    "0x181af5Fc47b5c276BE283B40AFD5A1b0219e8312",
    "0xa9AcEec85800C59BA8F07C4755b303e830e3B0f2",
    "0x70AB9Ff7528599A673Fe7616C8Dfaf00a9D3b8D8",
    "0x9B97F8429ac8CCf6128607614301b7d50a1Df338",
    "0x6c3699283bda56ad74f6b855546325b68d482e983852a7a82979cc4807b641f4",
    "100000000000000000",
    "100000000000000000",
    "30"
  ],
  "solcInputHash": "0a0564e7e76c51d024d08dcdfa36eb56",
  "bytecode": "0x60c06040523480156200001157600080fd5b5060405162002ce738038062002ce7833981810160405281019062000037919062000408565b86868173ffffffffffffffffffffffffffffffffffffffff1660a08173ffffffffffffffffffffffffffffffffffffffff16815250508073ffffffffffffffffffffffffffffffffffffffff1660808173ffffffffffffffffffffffffffffffffffffffff16815250505050620000d57f5f0a5f78118b6e0b700e0357ae3909aaafe8fa706a075935688657cf4135f9a989620001af60201b60201c565b87600760006101000a81548173ffffffffffffffffffffffffffffffffffffffff021916908373ffffffffffffffffffffffffffffffffffffffff16021790555084600960006101000a81548173ffffffffffffffffffffffffffffffffffffffff021916908373ffffffffffffffffffffffffffffffffffffffff160217905550836002819055508260038190555081600481905550806006819055506000600960146101000a81548160ff021916908360038111156200019c576200019b620004d1565b5b0217905550505050505050505062000500565b620001c18282620001c560201b60201c565b5050565b620001d78282620002b660201b60201c565b620002b257600160008084815260200190815260200160002060000160008373ffffffffffffffffffffffffffffffffffffffff1673ffffffffffffffffffffffffffffffffffffffff16815260200190815260200160002060006101000a81548160ff021916908315150217905550620002576200032060201b60201c565b73ffffffffffffffffffffffffffffffffffffffff168173ffffffffffffffffffffffffffffffffffffffff16837f2f8788117e7eff1d82e926ec794901d17c78024a50270940304540a733656f0d60405160405180910390a45b5050565b600080600084815260200190815260200160002060000160008373ffffffffffffffffffffffffffffffffffffffff1673ffffffffffffffffffffffffffffffffffffffff16815260200190815260200160002060009054906101000a900460ff16905092915050565b600033905090565b600080fd5b600073ffffffffffffffffffffffffffffffffffffffff82169050919050565b60006200035a826200032d565b9050919050565b6200036c816200034d565b81146200037857600080fd5b50565b6000815190506200038c8162000361565b92915050565b6000819050919050565b620003a78162000392565b8114620003b357600080fd5b50565b600081519050620003c7816200039c565b92915050565b6000819050919050565b620003e281620003cd565b8114620003ee57600080fd5b50565b6000815190506200040281620003d7565b92915050565b600080600080600080600080610100898b0312156200042c576200042b62000328565b5b60006200043c8b828c016200037b565b98505060206200044f8b828c016200037b565b9750506040620004628b828c016200037b565b9650506060620004758b828c016200037b565b9550506080620004888b828c01620003b6565b94505060a06200049b8b828c01620003f1565b93505060c0620004ae8b828c01620003f1565b92505060e0620004c18b828c01620003f1565b9150509295985092959890939650565b7f4e487b7100000000000000000000000000000000000000000000000000000000600052602160045260246000fd5b60805160a0516127ac6200053b6000396000818161098401526111b8015260008181610643015281816107ff015261117c01526127ac6000f3fe608060405234801561001057600080fd5b50600436106101425760003560e01c806391d14854116100b8578063a425db081161007c578063a425db0814610366578063c2d7944414610382578063cc45483f146103a0578063cc9b2ea3146103be578063d4483d10146103dc578063d547741f146103fa57610142565b806391d14854146102c057806394985ddd146102f05780639e7557771461030c578063a217fddf1461032a578063a2eaacac1461034857610142565b806336568abe1161010a57806336568abe146101eb5780634585e33b1461020757806345bb327b1461022357806359d98734146102415780636e04ff0d1461027157806374f5c551146102a257610142565b806301ffc9a714610147578063242284f114610177578063248a9ca3146101815780632f2ff15d146101b157806334854043146101cd575b600080fd5b610161600480360381019061015c9190611727565b610416565b60405161016e919061176f565b60405180910390f35b61017f610490565b005b61019b600480360381019061019691906117c0565b61056d565b6040516101a891906117fc565b60405180910390f35b6101cb60048036038101906101c69190611875565b61058c565b005b6101d56105b5565b6040516101e291906118ce565b60405180910390f35b61020560048036038101906102009190611875565b6105bb565b005b610221600480360381019061021c919061194e565b61063e565b005b61022b6107ce565b60405161023891906117fc565b60405180910390f35b61025b6004803603810190610256919061199b565b6107d4565b60405161026891906118ce565b60405180910390f35b61028b60048036038101906102869190611b09565b6107ec565b604051610299929190611bda565b60405180910390f35b6102aa610912565b6040516102b791906118ce565b60405180910390f35b6102da60048036038101906102d59190611875565b610918565b6040516102e7919061176f565b60405180910390f35b61030a60048036038101906103059190611c36565b610982565b005b610314610a1e565b6040516103219190611cd5565b60405180910390f35b610332610a44565b60405161033f91906117fc565b60405180910390f35b610350610a4b565b60405161035d91906118ce565b60405180910390f35b610380600480360381019061037b9190611cf0565b610a51565b005b61038a610e1c565b60405161039791906117fc565b60405180910390f35b6103a8610e40565b6040516103b59190611da7565b60405180910390f35b6103c6610e53565b6040516103d391906118ce565b60405180910390f35b6103e4610e59565b6040516103f19190611dd1565b60405180910390f35b610414600480360381019061040f9190611875565b610e7f565b005b60007f7965db0b000000000000000000000000000000000000000000000000000000007bffffffffffffffffffffffffffffffffffffffffffffffffffffffff1916827bffffffffffffffffffffffffffffffffffffffffffffffffffffffff19161480610489575061048882610ea8565b5b9050919050565b7f5f0a5f78118b6e0b700e0357ae3909aaafe8fa706a075935688657cf4135f9a96104c2816104bd610f12565b610f1a565b600060038111156104d6576104d5611d30565b5b600960149054906101000a900460ff1660038111156104f8576104f7611d30565b5b14610538576040517f08c379a000000000000000000000000000000000000000000000000000000000815260040161052f90611e6f565b60405180910390fd5b426005819055506001600960146101000a81548160ff0219169083600381111561056557610564611d30565b5b021790555050565b6000806000838152602001908152602001600020600101549050919050565b6105958261056d565b6105a6816105a1610f12565b610f1a565b6105b08383610fb7565b505050565b60055481565b6105c3610f12565b73ffffffffffffffffffffffffffffffffffffffff168173ffffffffffffffffffffffffffffffffffffffff1614610630576040517f08c379a000000000000000000000000000000000000000000000000000000000815260040161062790611f01565b60405180910390fd5b61063a8282611097565b5050565b6003547f000000000000000000000000000000000000000000000000000000000000000073ffffffffffffffffffffffffffffffffffffffff166370a08231306040518263ffffffff1660e01b815260040161069a9190611dd1565b60206040518083038186803b1580156106b257600080fd5b505afa1580156106c6573d6000803e3d6000fd5b505050506040513d601f19601f820116820180604052508101906106ea9190611f36565b101561072b576040517f08c379a000000000000000000000000000000000000000000000000000000000815260040161072290611faf565b60405180910390fd5b6000610745604051806020016040528060008152506107ec565b50905080610788576040517f08c379a000000000000000000000000000000000000000000000000000000000815260040161077f9061201b565b60405180910390fd5b426005819055506002600960146101000a81548160ff021916908360038111156107b5576107b4611d30565b5b02179055506107c8600254600354611178565b50505050565b60025481565b60086020528060005260406000206000915090505481565b600060606107f86112d9565b60006003547f000000000000000000000000000000000000000000000000000000000000000073ffffffffffffffffffffffffffffffffffffffff166370a08231306040518263ffffffff1660e01b81526004016108569190611dd1565b60206040518083038186803b15801561086e57600080fd5b505afa158015610882573d6000803e3d6000fd5b505050506040513d601f19601f820116820180604052508101906108a69190611f36565b101590506000600960149054906101000a900460ff1660038111156108ce576108cd611d30565b5b600160038111156108e2576108e1611d30565b5b149050600654600554426108f6919061206a565b1180156109005750805b80156109095750815b93505050915091565b60035481565b600080600084815260200190815260200160002060000160008373ffffffffffffffffffffffffffffffffffffffff1673ffffffffffffffffffffffffffffffffffffffff16815260200190815260200160002060009054906101000a900460ff16905092915050565b7f000000000000000000000000000000000000000000000000000000000000000073ffffffffffffffffffffffffffffffffffffffff163373ffffffffffffffffffffffffffffffffffffffff1614610a10576040517f08c379a0000000000000000000000000000000000000000000000000000000008152600401610a07906120ea565b60405180910390fd5b610a1a8282611341565b5050565b600960009054906101000a900473ffffffffffffffffffffffffffffffffffffffff1681565b6000801b81565b60045481565b60016003811115610a6557610a64611d30565b5b600960149054906101000a900460ff166003811115610a8757610a86611d30565b5b14610ac7576040517f08c379a0000000000000000000000000000000000000000000000000000000008152600401610abe90612156565b60405180910390fd5b80600960009054906101000a900473ffffffffffffffffffffffffffffffffffffffff1673ffffffffffffffffffffffffffffffffffffffff1663dd62ed3e84306040518363ffffffff1660e01b8152600401610b25929190612176565b60206040518083038186803b158015610b3d57600080fd5b505afa158015610b51573d6000803e3d6000fd5b505050506040513d601f19601f82011682018060405250810190610b759190611f36565b1015610bb6576040517f08c379a0000000000000000000000000000000000000000000000000000000008152600401610bad906121eb565b60405180910390fd5b60045481600860008573ffffffffffffffffffffffffffffffffffffffff1673ffffffffffffffffffffffffffffffffffffffff16815260200190815260200160002054610c04919061220b565b1015610c45576040517f08c379a0000000000000000000000000000000000000000000000000000000008152600401610c3c906122ad565b60405180910390fd5b600960009054906101000a900473ffffffffffffffffffffffffffffffffffffffff1673ffffffffffffffffffffffffffffffffffffffff166323b872dd8330846040518463ffffffff1660e01b8152600401610ca4939291906122cd565b602060405180830381600087803b158015610cbe57600080fd5b505af1158015610cd2573d6000803e3d6000fd5b505050506040513d601f19601f82011682018060405250810190610cf69190612330565b610d35576040517f08c379a0000000000000000000000000000000000000000000000000000000008152600401610d2c906123a9565b60405180910390fd5b80600860008473ffffffffffffffffffffffffffffffffffffffff1673ffffffffffffffffffffffffffffffffffffffff1681526020019081526020016000206000828254610d84919061220b565b925050819055508173ffffffffffffffffffffffffffffffffffffffff167fac8056c6bca28b4f0daf6062756d8c1554530a47095a334d0b6fa7e7f7a36676600860008573ffffffffffffffffffffffffffffffffffffffff1673ffffffffffffffffffffffffffffffffffffffff16815260200190815260200160002054604051610e1091906118ce565b60405180910390a25050565b7f5f0a5f78118b6e0b700e0357ae3909aaafe8fa706a075935688657cf4135f9a981565b600960149054906101000a900460ff1681565b60065481565b600760009054906101000a900473ffffffffffffffffffffffffffffffffffffffff1681565b610e888261056d565b610e9981610e94610f12565b610f1a565b610ea38383611097565b505050565b60007f01ffc9a7000000000000000000000000000000000000000000000000000000007bffffffffffffffffffffffffffffffffffffffffffffffffffffffff1916827bffffffffffffffffffffffffffffffffffffffffffffffffffffffff1916149050919050565b600033905090565b610f248282610918565b610fb357610f498173ffffffffffffffffffffffffffffffffffffffff16601461134e565b610f578360001c602061134e565b604051602001610f689291906124a8565b6040516020818303038152906040526040517f08c379a0000000000000000000000000000000000000000000000000000000008152600401610faa919061251b565b60405180910390fd5b5050565b610fc18282610918565b61109357600160008084815260200190815260200160002060000160008373ffffffffffffffffffffffffffffffffffffffff1673ffffffffffffffffffffffffffffffffffffffff16815260200190815260200160002060006101000a81548160ff021916908315150217905550611038610f12565b73ffffffffffffffffffffffffffffffffffffffff168173ffffffffffffffffffffffffffffffffffffffff16837f2f8788117e7eff1d82e926ec794901d17c78024a50270940304540a733656f0d60405160405180910390a45b5050565b6110a18282610918565b1561117457600080600084815260200190815260200160002060000160008373ffffffffffffffffffffffffffffffffffffffff1673ffffffffffffffffffffffffffffffffffffffff16815260200190815260200160002060006101000a81548160ff021916908315150217905550611119610f12565b73ffffffffffffffffffffffffffffffffffffffff168173ffffffffffffffffffffffffffffffffffffffff16837ff6391f5c32d9c69d2a47ea670b442974b53935d1edc7fd64eb21e047a839171b60405160405180910390a45b5050565b60007f000000000000000000000000000000000000000000000000000000000000000073ffffffffffffffffffffffffffffffffffffffff16634000aea07f0000000000000000000000000000000000000000000000000000000000000000848660006040516020016111ec92919061253d565b6040516020818303038152906040526040518463ffffffff1660e01b815260040161121993929190612566565b602060405180830381600087803b15801561123357600080fd5b505af1158015611247573d6000803e3d6000fd5b505050506040513d601f19601f8201168201806040525081019061126b9190612330565b50600061128e84600030600160008981526020019081526020016000205461158a565b90506001806000868152602001908152602001600020546112af919061220b565b60016000868152602001908152602001600020819055506112d084826115c6565b91505092915050565b600073ffffffffffffffffffffffffffffffffffffffff163273ffffffffffffffffffffffffffffffffffffffff161461133f576040517fb60ac5db00000000000000000000000000000000000000000000000000000000815260040160405180910390fd5b565b61134a816115f9565b5050565b60606000600283600261136191906125a4565b61136b919061220b565b67ffffffffffffffff811115611384576113836119de565b5b6040519080825280601f01601f1916602001820160405280156113b65781602001600182028036833780820191505090505b5090507f3000000000000000000000000000000000000000000000000000000000000000816000815181106113ee576113ed6125fe565b5b60200101907effffffffffffffffffffffffffffffffffffffffffffffffffffffffffffff1916908160001a9053507f780000000000000000000000000000000000000000000000000000000000000081600181518110611452576114516125fe565b5b60200101907effffffffffffffffffffffffffffffffffffffffffffffffffffffffffffff1916908160001a9053506000600184600261149291906125a4565b61149c919061220b565b90505b600181111561153c577f3031323334353637383961626364656600000000000000000000000000000000600f8616601081106114de576114dd6125fe565b5b1a60f81b8282815181106114f5576114f46125fe565b5b60200101907effffffffffffffffffffffffffffffffffffffffffffffffffffffffffffff1916908160001a905350600485901c9450806115359061262d565b905061149f565b5060008414611580576040517f08c379a0000000000000000000000000000000000000000000000000000000008152600401611577906126a3565b60405180910390fd5b8091505092915050565b6000848484846040516020016115a394939291906126c3565b6040516020818303038152906040528051906020012060001c9050949350505050565b600082826040516020016115db92919061274a565b60405160208183030381529060405280519060200120905092915050565b61168f8160405160240161160d91906118ce565b6040516020818303038152906040527ff5b1bba9000000000000000000000000000000000000000000000000000000007bffffffffffffffffffffffffffffffffffffffffffffffffffffffff19166020820180517bffffffffffffffffffffffffffffffffffffffffffffffffffffffff8381831617835250505050611692565b50565b60008151905060006a636f6e736f6c652e6c6f679050602083016000808483855afa5050505050565b6000604051905090565b600080fd5b600080fd5b60007fffffffff0000000000000000000000000000000000000000000000000000000082169050919050565b611704816116cf565b811461170f57600080fd5b50565b600081359050611721816116fb565b92915050565b60006020828403121561173d5761173c6116c5565b5b600061174b84828501611712565b91505092915050565b60008115159050919050565b61176981611754565b82525050565b60006020820190506117846000830184611760565b92915050565b6000819050919050565b61179d8161178a565b81146117a857600080fd5b50565b6000813590506117ba81611794565b92915050565b6000602082840312156117d6576117d56116c5565b5b60006117e4848285016117ab565b91505092915050565b6117f68161178a565b82525050565b600060208201905061181160008301846117ed565b92915050565b600073ffffffffffffffffffffffffffffffffffffffff82169050919050565b600061184282611817565b9050919050565b61185281611837565b811461185d57600080fd5b50565b60008135905061186f81611849565b92915050565b6000806040838503121561188c5761188b6116c5565b5b600061189a858286016117ab565b92505060206118ab85828601611860565b9150509250929050565b6000819050919050565b6118c8816118b5565b82525050565b60006020820190506118e360008301846118bf565b92915050565b600080fd5b600080fd5b600080fd5b60008083601f84011261190e5761190d6118e9565b5b8235905067ffffffffffffffff81111561192b5761192a6118ee565b5b602083019150836001820283011115611947576119466118f3565b5b9250929050565b60008060208385031215611965576119646116c5565b5b600083013567ffffffffffffffff811115611983576119826116ca565b5b61198f858286016118f8565b92509250509250929050565b6000602082840312156119b1576119b06116c5565b5b60006119bf84828501611860565b91505092915050565b600080fd5b6000601f19601f8301169050919050565b7f4e487b7100000000000000000000000000000000000000000000000000000000600052604160045260246000fd5b611a16826119cd565b810181811067ffffffffffffffff82111715611a3557611a346119de565b5b80604052505050565b6000611a486116bb565b9050611a548282611a0d565b919050565b600067ffffffffffffffff821115611a7457611a736119de565b5b611a7d826119cd565b9050602081019050919050565b82818337600083830152505050565b6000611aac611aa784611a59565b611a3e565b905082815260208101848484011115611ac857611ac76119c8565b5b611ad3848285611a8a565b509392505050565b600082601f830112611af057611aef6118e9565b5b8135611b00848260208601611a99565b91505092915050565b600060208284031215611b1f57611b1e6116c5565b5b600082013567ffffffffffffffff811115611b3d57611b3c6116ca565b5b611b4984828501611adb565b91505092915050565b600081519050919050565b600082825260208201905092915050565b60005b83811015611b8c578082015181840152602081019050611b71565b83811115611b9b576000848401525b50505050565b6000611bac82611b52565b611bb68185611b5d565b9350611bc6818560208601611b6e565b611bcf816119cd565b840191505092915050565b6000604082019050611bef6000830185611760565b8181036020830152611c018184611ba1565b90509392505050565b611c13816118b5565b8114611c1e57600080fd5b50565b600081359050611c3081611c0a565b92915050565b60008060408385031215611c4d57611c4c6116c5565b5b6000611c5b858286016117ab565b9250506020611c6c85828601611c21565b9150509250929050565b6000819050919050565b6000611c9b611c96611c9184611817565b611c76565b611817565b9050919050565b6000611cad82611c80565b9050919050565b6000611cbf82611ca2565b9050919050565b611ccf81611cb4565b82525050565b6000602082019050611cea6000830184611cc6565b92915050565b60008060408385031215611d0757611d066116c5565b5b6000611d1585828601611860565b9250506020611d2685828601611c21565b9150509250929050565b7f4e487b7100000000000000000000000000000000000000000000000000000000600052602160045260246000fd5b60048110611d7057611d6f611d30565b5b50565b6000819050611d8182611d5f565b919050565b6000611d9182611d73565b9050919050565b611da181611d86565b82525050565b6000602082019050611dbc6000830184611d98565b92915050565b611dcb81611837565b82525050565b6000602082019050611de66000830184611dc2565b92915050565b600082825260208201905092915050565b7f526166666c65206d7573742068617665206e6f7420737461727465642079657460008201527f2e00000000000000000000000000000000000000000000000000000000000000602082015250565b6000611e59602183611dec565b9150611e6482611dfd565b604082019050919050565b60006020820190508181036000830152611e8881611e4c565b9050919050565b7f416363657373436f6e74726f6c3a2063616e206f6e6c792072656e6f756e636560008201527f20726f6c657320666f722073656c660000000000000000000000000000000000602082015250565b6000611eeb602f83611dec565b9150611ef682611e8f565b604082019050919050565b60006020820190508181036000830152611f1a81611ede565b9050919050565b600081519050611f3081611c0a565b92915050565b600060208284031215611f4c57611f4b6116c5565b5b6000611f5a84828501611f21565b91505092915050565b7f4e6f7420656e6f756768204c494e4b0000000000000000000000000000000000600082015250565b6000611f99600f83611dec565b9150611fa482611f63565b602082019050919050565b60006020820190508181036000830152611fc881611f8c565b9050919050565b7f55706b656570206e6f74206e6565646564000000000000000000000000000000600082015250565b6000612005601183611dec565b915061201082611fcf565b602082019050919050565b6000602082019050818103600083015261203481611ff8565b9050919050565b7f4e487b7100000000000000000000000000000000000000000000000000000000600052601160045260246000fd5b6000612075826118b5565b9150612080836118b5565b9250828210156120935761209261203b565b5b828203905092915050565b7f4f6e6c7920565246436f6f7264696e61746f722063616e2066756c66696c6c00600082015250565b60006120d4601f83611dec565b91506120df8261209e565b602082019050919050565b60006020820190508181036000830152612103816120c7565b9050919050565b7f526166666c65206d757374206265206f70656e2e000000000000000000000000600082015250565b6000612140601483611dec565b915061214b8261210a565b602082019050919050565b6000602082019050818103600083015261216f81612133565b9050919050565b600060408201905061218b6000830185611dc2565b6121986020830184611dc2565b9392505050565b7f546f6b656e20616c6c6f77616e636520746f6f206c6f772e0000000000000000600082015250565b60006121d5601883611dec565b91506121e08261219f565b602082019050919050565b60006020820190508181036000830152612204816121c8565b9050919050565b6000612216826118b5565b9150612221836118b5565b9250827fffffffffffffffffffffffffffffffffffffffffffffffffffffffffffffffff038211156122565761225561203b565b5b828201905092915050565b7f4e6f7420656e6f75676820746f6b656e732e0000000000000000000000000000600082015250565b6000612297601283611dec565b91506122a282612261565b602082019050919050565b600060208201905081810360008301526122c68161228a565b9050919050565b60006060820190506122e26000830186611dc2565b6122ef6020830185611dc2565b6122fc60408301846118bf565b949350505050565b61230d81611754565b811461231857600080fd5b50565b60008151905061232a81612304565b92915050565b600060208284031215612346576123456116c5565b5b60006123548482850161231b565b91505092915050565b7f546f6b656e207472616e73666572206661696c65642e00000000000000000000600082015250565b6000612393601683611dec565b915061239e8261235d565b602082019050919050565b600060208201905081810360008301526123c281612386565b9050919050565b600081905092915050565b7f416363657373436f6e74726f6c3a206163636f756e7420000000000000000000600082015250565b600061240a6017836123c9565b9150612415826123d4565b601782019050919050565b600081519050919050565b600061243682612420565b61244081856123c9565b9350612450818560208601611b6e565b80840191505092915050565b7f206973206d697373696e6720726f6c6520000000000000000000000000000000600082015250565b60006124926011836123c9565b915061249d8261245c565b601182019050919050565b60006124b3826123fd565b91506124bf828561242b565b91506124ca82612485565b91506124d6828461242b565b91508190509392505050565b60006124ed82612420565b6124f78185611dec565b9350612507818560208601611b6e565b612510816119cd565b840191505092915050565b6000602082019050818103600083015261253581846124e2565b905092915050565b600060408201905061255260008301856117ed565b61255f60208301846118bf565b9392505050565b600060608201905061257b6000830186611dc2565b61258860208301856118bf565b818103604083015261259a8184611ba1565b9050949350505050565b60006125af826118b5565b91506125ba836118b5565b9250817fffffffffffffffffffffffffffffffffffffffffffffffffffffffffffffffff04831182151516156125f3576125f261203b565b5b828202905092915050565b7f4e487b7100000000000000000000000000000000000000000000000000000000600052603260045260246000fd5b6000612638826118b5565b9150600082141561264c5761264b61203b565b5b600182039050919050565b7f537472696e67733a20686578206c656e67746820696e73756666696369656e74600082015250565b600061268d602083611dec565b915061269882612657565b602082019050919050565b600060208201905081810360008301526126bc81612680565b9050919050565b60006080820190506126d860008301876117ed565b6126e560208301866118bf565b6126f26040830185611dc2565b6126ff60608301846118bf565b95945050505050565b6000819050919050565b61272361271e8261178a565b612708565b82525050565b6000819050919050565b61274461273f826118b5565b612729565b82525050565b60006127568285612712565b6020820191506127668284612733565b602082019150819050939250505056fea26469706673582212201742a1e6d33708c0dcc36f4de15019c8821998b013360ffd27302682b37e4e5664736f6c63430008090033",
  "devdoc": {
    "author": "Colin Steidtmann",
    "details": "Explain to a developer any extra details",
    "kind": "dev",
    "methods": {
      "checkUpkeep(bytes)": {
        "details": "Explain to a developer any extra details",
        "returns": {
          "upkeepNeeded": "Indicates whether the Keeper should call performUpkeep or not."
        }
      },
      "constructor": {
        "details": "Explain to a developer any extra details",
        "params": {
          "_chainlinkFee": "LINK fee required to fulfill a VRF request",
          "_entranceFee": "min TKNbits required to be entered int the raffle",
          "_interval": "Duration of raffle in seconds.",
          "_keyHash": "The public key against which randomness is generated.",
          "_linkToken": "Address of the LINK token",
          "_sponsor": "Address of the raffle's sponsor",
          "_treasuryToken": "Address of the ERC20 token the raffle uses",
          "_vrfCoordinator": "Address of the Chainlink VRF Coordinator"
        }
      },
      "enterRaffle(address,uint256)": {
        "details": "Explain to a developer any extra details"
      },
      "getRoleAdmin(bytes32)": {
        "details": "Returns the admin role that controls `role`. See {grantRole} and {revokeRole}. To change a role's admin, use {_setRoleAdmin}."
      },
      "grantRole(bytes32,address)": {
        "details": "Grants `role` to `account`. If `account` had not been already granted `role`, emits a {RoleGranted} event. Requirements: - the caller must have ``role``'s admin role."
      },
      "hasRole(bytes32,address)": {
        "details": "Returns `true` if `account` has been granted `role`."
      },
      "performUpkeep(bytes)": {
        "details": "Explain to a developer any extra details"
      },
      "renounceRole(bytes32,address)": {
        "details": "Revokes `role` from the calling account. Roles are often managed via {grantRole} and {revokeRole}: this function's purpose is to provide a mechanism for accounts to lose their privileges if they are compromised (such as when a trusted device is misplaced). If the calling account had been granted `role`, emits a {RoleRevoked} event. Requirements: - the caller must be `account`."
      },
      "revokeRole(bytes32,address)": {
        "details": "Revokes `role` from `account`. If `account` had been granted `role`, emits a {RoleRevoked} event. Requirements: - the caller must have ``role``'s admin role."
      },
      "startRaffle()": {
        "details": "Explain to a developer any extra details"
      },
      "supportsInterface(bytes4)": {
        "details": "See {IERC165-supportsInterface}."
      }
    },
    "title": "Raffle",
    "version": 1
  },
  "userdoc": {
    "kind": "user",
    "methods": {
      "checkUpkeep(bytes)": {
        "notice": "Explain to an end user what this does"
      },
      "constructor": {
        "notice": "Explain to an end user what this does"
      },
      "enterRaffle(address,uint256)": {
        "notice": "Explain to an end user what this does"
      },
      "performUpkeep(bytes)": {
        "notice": "Explain to an end user what this does"
      },
      "startRaffle()": {
        "notice": "Explain to an end user what this does"
      }
    },
    "notice": "Creates, runs, and finalizes a raffle",
    "version": 1
  },
  "storageLayout": {
    "storage": [
      {
        "astId": 348,
        "contract": "contracts/Raffle.sol:Raffle",
        "label": "_roles",
        "offset": 0,
        "slot": "0",
        "type": "t_mapping(t_bytes32,t_struct(RoleData)343_storage)"
      },
      {
        "astId": 118,
        "contract": "contracts/Raffle.sol:Raffle",
        "label": "nonces",
        "offset": 0,
        "slot": "1",
        "type": "t_mapping(t_bytes32,t_uint256)"
      },
      {
        "astId": 1169,
        "contract": "contracts/Raffle.sol:Raffle",
        "label": "s_keyHash",
        "offset": 0,
        "slot": "2",
        "type": "t_bytes32"
      },
      {
        "astId": 1171,
        "contract": "contracts/Raffle.sol:Raffle",
        "label": "s_chainlinkFee",
        "offset": 0,
        "slot": "3",
        "type": "t_uint256"
      },
      {
        "astId": 1173,
        "contract": "contracts/Raffle.sol:Raffle",
        "label": "s_entranceFee",
        "offset": 0,
        "slot": "4",
        "type": "t_uint256"
      },
      {
        "astId": 1175,
        "contract": "contracts/Raffle.sol:Raffle",
        "label": "s_lastTimeStamp",
        "offset": 0,
        "slot": "5",
        "type": "t_uint256"
      },
      {
        "astId": 1177,
        "contract": "contracts/Raffle.sol:Raffle",
        "label": "s_interval",
        "offset": 0,
        "slot": "6",
        "type": "t_uint256"
      },
      {
        "astId": 1179,
        "contract": "contracts/Raffle.sol:Raffle",
        "label": "s_sponsor",
        "offset": 0,
        "slot": "7",
        "type": "t_address"
      },
      {
        "astId": 1183,
        "contract": "contracts/Raffle.sol:Raffle",
        "label": "s_deposits",
        "offset": 0,
        "slot": "8",
        "type": "t_mapping(t_address,t_uint256)"
      },
      {
        "astId": 1186,
        "contract": "contracts/Raffle.sol:Raffle",
        "label": "s_treasuryToken",
        "offset": 0,
        "slot": "9",
        "type": "t_contract(IERC20)885"
      },
      {
        "astId": 1189,
        "contract": "contracts/Raffle.sol:Raffle",
        "label": "s_raffleState",
        "offset": 20,
        "slot": "9",
        "type": "t_enum(raffleState)1194"
      }
    ],
    "types": {
      "t_address": {
        "encoding": "inplace",
        "label": "address",
        "numberOfBytes": "20"
      },
      "t_bool": {
        "encoding": "inplace",
        "label": "bool",
        "numberOfBytes": "1"
      },
      "t_bytes32": {
        "encoding": "inplace",
        "label": "bytes32",
        "numberOfBytes": "32"
      },
      "t_contract(IERC20)885": {
        "encoding": "inplace",
        "label": "contract IERC20",
        "numberOfBytes": "20"
      },
      "t_enum(raffleState)1194": {
        "encoding": "inplace",
        "label": "enum Raffle.raffleState",
        "numberOfBytes": "1"
      },
      "t_mapping(t_address,t_bool)": {
        "encoding": "mapping",
        "key": "t_address",
        "label": "mapping(address => bool)",
        "numberOfBytes": "32",
        "value": "t_bool"
      },
      "t_mapping(t_address,t_uint256)": {
        "encoding": "mapping",
        "key": "t_address",
        "label": "mapping(address => uint256)",
        "numberOfBytes": "32",
        "value": "t_uint256"
      },
      "t_mapping(t_bytes32,t_struct(RoleData)343_storage)": {
        "encoding": "mapping",
        "key": "t_bytes32",
        "label": "mapping(bytes32 => struct AccessControl.RoleData)",
        "numberOfBytes": "32",
        "value": "t_struct(RoleData)343_storage"
      },
      "t_mapping(t_bytes32,t_uint256)": {
        "encoding": "mapping",
        "key": "t_bytes32",
        "label": "mapping(bytes32 => uint256)",
        "numberOfBytes": "32",
        "value": "t_uint256"
      },
      "t_struct(RoleData)343_storage": {
        "encoding": "inplace",
        "label": "struct AccessControl.RoleData",
        "members": [
          {
            "astId": 340,
            "contract": "contracts/Raffle.sol:Raffle",
            "label": "members",
            "offset": 0,
            "slot": "0",
            "type": "t_mapping(t_address,t_bool)"
          },
          {
            "astId": 342,
            "contract": "contracts/Raffle.sol:Raffle",
            "label": "adminRole",
            "offset": 0,
            "slot": "1",
            "type": "t_bytes32"
          }
        ],
        "numberOfBytes": "64"
      },
      "t_uint256": {
        "encoding": "inplace",
        "label": "uint256",
        "numberOfBytes": "32"
      }
    }
  }
}