{
  "address": "0x46a0977e15Cad416135Bd724679F21AD047bB44b",
  "abi": [
    {
      "inputs": [
        {
          "internalType": "address",
          "name": "_vrfCoordinator",
          "type": "address"
        },
        {
          "internalType": "address",
          "name": "_link",
          "type": "address"
        },
        {
          "internalType": "bytes32",
          "name": "_keyHash",
          "type": "bytes32"
        },
        {
          "internalType": "uint256",
          "name": "_fee",
          "type": "uint256"
        }
      ],
      "stateMutability": "nonpayable",
      "type": "constructor"
    },
    {
      "inputs": [],
      "name": "getRandomNumber",
      "outputs": [
        {
          "internalType": "bytes32",
          "name": "requestId",
          "type": "bytes32"
        }
      ],
      "stateMutability": "nonpayable",
      "type": "function"
    },
    {
      "inputs": [],
      "name": "randomResult",
      "outputs": [
        {
          "internalType": "uint256",
          "name": "",
          "type": "uint256"
        }
      ],
      "stateMutability": "view",
      "type": "function"
    },
    {
      "inputs": [
        {
          "internalType": "bytes32",
          "name": "requestId",
          "type": "bytes32"
        },
        {
          "internalType": "uint256",
          "name": "randomness",
          "type": "uint256"
        }
      ],
      "name": "rawFulfillRandomness",
      "outputs": [],
      "stateMutability": "nonpayable",
      "type": "function"
    }
  ],
  "transactionHash": "0x23de2bf04c25098901a7f1cd684a4c871a06e3a28ae1693a5a5e7162255d16c9",
  "args": [
    "0xa9AcEec85800C59BA8F07C4755b303e830e3B0f2",
    "0x70AB9Ff7528599A673Fe7616C8Dfaf00a9D3b8D8",
    "0x6c3699283bda56ad74f6b855546325b68d482e983852a7a82979cc4807b641f4",
    "100000000000000000"
  ],
  "solcInputHash": "e51396a6e3152c2904e039f6c3a5e546",
  "bytecode": "0x60c06040523480156200001157600080fd5b5060405162000be038038062000be083398181016040528101906200003791906200019b565b83838173ffffffffffffffffffffffffffffffffffffffff1660a08173ffffffffffffffffffffffffffffffffffffffff16815250508073ffffffffffffffffffffffffffffffffffffffff1660808173ffffffffffffffffffffffffffffffffffffffff168152505050508160018190555080600281905550505050506200020d565b600080fd5b600073ffffffffffffffffffffffffffffffffffffffff82169050919050565b6000620000ed82620000c0565b9050919050565b620000ff81620000e0565b81146200010b57600080fd5b50565b6000815190506200011f81620000f4565b92915050565b6000819050919050565b6200013a8162000125565b81146200014657600080fd5b50565b6000815190506200015a816200012f565b92915050565b6000819050919050565b620001758162000160565b81146200018157600080fd5b50565b60008151905062000195816200016a565b92915050565b60008060008060808587031215620001b857620001b7620000bb565b5b6000620001c8878288016200010e565b9450506020620001db878288016200010e565b9350506040620001ee8782880162000149565b9250506060620002018782880162000184565b91505092959194509250565b60805160a0516109a0620002406000396000818160a6015261028d015260008181610147015261025101526109a06000f3fe608060405234801561001057600080fd5b50600436106100415760003560e01c806342619f661461004657806394985ddd14610064578063dbdff2c114610080575b600080fd5b61004e61009e565b60405161005b9190610434565b60405180910390f35b61007e600480360381019061007991906104b6565b6100a4565b005b610088610140565b6040516100959190610505565b60405180910390f35b60035481565b7f000000000000000000000000000000000000000000000000000000000000000073ffffffffffffffffffffffffffffffffffffffff163373ffffffffffffffffffffffffffffffffffffffff1614610132576040517f08c379a00000000000000000000000000000000000000000000000000000000081526004016101299061057d565b60405180910390fd5b61013c8282610242565b5050565b60006002547f000000000000000000000000000000000000000000000000000000000000000073ffffffffffffffffffffffffffffffffffffffff166370a08231306040518263ffffffff1660e01b815260040161019e91906105de565b60206040518083038186803b1580156101b657600080fd5b505afa1580156101ca573d6000803e3d6000fd5b505050506040513d601f19601f820116820180604052508101906101ee919061060e565b101561022f576040517f08c379a0000000000000000000000000000000000000000000000000000000008152600401610226906106ad565b60405180910390fd5b61023d60015460025461024d565b905090565b806003819055505050565b60007f000000000000000000000000000000000000000000000000000000000000000073ffffffffffffffffffffffffffffffffffffffff16634000aea07f0000000000000000000000000000000000000000000000000000000000000000848660006040516020016102c19291906106cd565b6040516020818303038152906040526040518463ffffffff1660e01b81526004016102ee9392919061078f565b602060405180830381600087803b15801561030857600080fd5b505af115801561031c573d6000803e3d6000fd5b505050506040513d601f19601f820116820180604052508101906103409190610805565b50600061036284600030600080898152602001908152602001600020546103ac565b90506001600080868152602001908152602001600020546103839190610861565b600080868152602001908152602001600020819055506103a384826103e8565b91505092915050565b6000848484846040516020016103c594939291906108b7565b6040516020818303038152906040528051906020012060001c9050949350505050565b600082826040516020016103fd92919061093e565b60405160208183030381529060405280519060200120905092915050565b6000819050919050565b61042e8161041b565b82525050565b60006020820190506104496000830184610425565b92915050565b600080fd5b6000819050919050565b61046781610454565b811461047257600080fd5b50565b6000813590506104848161045e565b92915050565b6104938161041b565b811461049e57600080fd5b50565b6000813590506104b08161048a565b92915050565b600080604083850312156104cd576104cc61044f565b5b60006104db85828601610475565b92505060206104ec858286016104a1565b9150509250929050565b6104ff81610454565b82525050565b600060208201905061051a60008301846104f6565b92915050565b600082825260208201905092915050565b7f4f6e6c7920565246436f6f7264696e61746f722063616e2066756c66696c6c00600082015250565b6000610567601f83610520565b915061057282610531565b602082019050919050565b600060208201905081810360008301526105968161055a565b9050919050565b600073ffffffffffffffffffffffffffffffffffffffff82169050919050565b60006105c88261059d565b9050919050565b6105d8816105bd565b82525050565b60006020820190506105f360008301846105cf565b92915050565b6000815190506106088161048a565b92915050565b6000602082840312156106245761062361044f565b5b6000610632848285016105f9565b91505092915050565b7f4e6f7420656e6f756768204c494e4b202d2066696c6c20636f6e74726163742060008201527f7769746820666175636574000000000000000000000000000000000000000000602082015250565b6000610697602b83610520565b91506106a28261063b565b604082019050919050565b600060208201905081810360008301526106c68161068a565b9050919050565b60006040820190506106e260008301856104f6565b6106ef6020830184610425565b9392505050565b600081519050919050565b600082825260208201905092915050565b60005b83811015610730578082015181840152602081019050610715565b8381111561073f576000848401525b50505050565b6000601f19601f8301169050919050565b6000610761826106f6565b61076b8185610701565b935061077b818560208601610712565b61078481610745565b840191505092915050565b60006060820190506107a460008301866105cf565b6107b16020830185610425565b81810360408301526107c38184610756565b9050949350505050565b60008115159050919050565b6107e2816107cd565b81146107ed57600080fd5b50565b6000815190506107ff816107d9565b92915050565b60006020828403121561081b5761081a61044f565b5b6000610829848285016107f0565b91505092915050565b7f4e487b7100000000000000000000000000000000000000000000000000000000600052601160045260246000fd5b600061086c8261041b565b91506108778361041b565b9250827fffffffffffffffffffffffffffffffffffffffffffffffffffffffffffffffff038211156108ac576108ab610832565b5b828201905092915050565b60006080820190506108cc60008301876104f6565b6108d96020830186610425565b6108e660408301856105cf565b6108f36060830184610425565b95945050505050565b6000819050919050565b61091761091282610454565b6108fc565b82525050565b6000819050919050565b6109386109338261041b565b61091d565b82525050565b600061094a8285610906565b60208201915061095a8284610927565b602082019150819050939250505056fea264697066735822122079d1ad71cfbfa618e7fcbb4ae286c12474c48f2c994b9c2bc96e5140f305db7764736f6c63430008090033",
  "devdoc": {
    "kind": "dev",
    "methods": {},
    "version": 1
  },
  "userdoc": {
    "kind": "user",
    "methods": {
      "constructor": {
        "notice": "Constructor inherits VRFConsumerBase Network: Kovan Chainlink VRF Coordinator address: 0xdD3782915140c8f3b190B5D67eAc6dc5760C46E9 LINK token address:                0xa36085F69e2889c224210F603D836748e7dC0088 Key Hash: 0x6c3699283bda56ad74f6b855546325b68d482e983852a7a82979cc4807b641f4"
      },
      "getRandomNumber()": {
        "notice": "Requests randomness"
      }
    },
    "notice": "THIS IS AN EXAMPLE CONTRACT WHICH USES HARDCODED VALUES FOR CLARITY. PLEASE DO NOT USE THIS CODE IN PRODUCTION.",
    "version": 1
  },
  "storageLayout": {
    "storage": [
      {
        "astId": 879,
        "contract": "contracts/RandomNumberConsumer.sol:RandomNumberConsumer",
        "label": "nonces",
        "offset": 0,
        "slot": "0",
        "type": "t_mapping(t_bytes32,t_uint256)"
      },
      {
        "astId": 3447,
        "contract": "contracts/RandomNumberConsumer.sol:RandomNumberConsumer",
        "label": "keyHash",
        "offset": 0,
        "slot": "1",
        "type": "t_bytes32"
      },
      {
        "astId": 3449,
        "contract": "contracts/RandomNumberConsumer.sol:RandomNumberConsumer",
        "label": "fee",
        "offset": 0,
        "slot": "2",
        "type": "t_uint256"
      },
      {
        "astId": 3451,
        "contract": "contracts/RandomNumberConsumer.sol:RandomNumberConsumer",
        "label": "randomResult",
        "offset": 0,
        "slot": "3",
        "type": "t_uint256"
      }
    ],
    "types": {
      "t_bytes32": {
        "encoding": "inplace",
        "label": "bytes32",
        "numberOfBytes": "32"
      },
      "t_mapping(t_bytes32,t_uint256)": {
        "encoding": "mapping",
        "key": "t_bytes32",
        "label": "mapping(bytes32 => uint256)",
        "numberOfBytes": "32",
        "value": "t_uint256"
      },
      "t_uint256": {
        "encoding": "inplace",
        "label": "uint256",
        "numberOfBytes": "32"
      }
    }
  }
}